:020000000328D3
:1000060083128C0141308D0052308E0049308F00B2
:1000160054309000483091004D30920045309300A6
:1000260054309400493095004330960020309700B4
:100036004F309800503099003A309A009B010222C6
:100046000130BC008E220C30BC008E22013083169B
:1000560085000D30AE0084230230AE000130AF00C3
:100066003030B0000A230230AE000530AF00303029
:10007600B0000A230230AE000730AF003D30B000BA
:100086000A23051874281A30CC00F830CD00CD0BA1
:100096004A28CC0B4A280000051C7428A90A031913
:1000A600AA0A2908AE002A08AF00272183124008B1
:1000B600AD000230AE000130AF004008B0000A23A8
:1000C60000302A06031D69280A302906031D7428F4
:1000D600A901AA010230AE000130AF003030B000F5
:1000E6000A238518A5283430CC00F130CD00CD0B7D
:1000F6007A28CC0B7A2800000000851CA528AB0ABC
:100106000319AC0A2B08AE002C08AF002721831276
:1001160040089C000230AE000530AF004008B00039
:100126000A2300302C06031D9A280A302B06031DCD
:10013600A528AB01AC010230AE000530AF0030306F
:10014600B0000A23051CBC28851CBC281A30CC002C
:10015600F830CD00CD0BAD28CC0BAD280000051C2A
:10016600BC28851CBC288C0A0C08043A031DBC2834
:100176008C0107290230AE000330AF002B30B000EF
:100186000A232B0829079D002A080318013E2C077D
:100196009E0017290230AE000330AF002D30B000AC
:1001A6000A232B0829029D002C08031C013E2A0263
:1001B6009E0017290230AE000330AF002A30B0008F
:1001C6000A232908C0002A08C1002B08C4002C08ED
:1001D600C5003C2340089D0041089E0017290230B7
:1001E600AE000330AF002F30B0000A232B08C40046
:1001F6002C08C5002908C0002A08C100672340084A
:100206009D0041089E0017290C08003A0319BD28D5
:100216000C08013A0319CD280C08023A0319DD2807
:100226000C08033A0319F2281D08AE001E08AF0099
:100236002030B00099210230AE000A30AF002030E5
:08024600B000CD224428262956
:10024E00472930308312C00098293130C0009829D8
:10025E003230C00098293330C00098293430C000A5
:10026E0098293530C00098293630C000982937308B
:10027E00C00098293830C00098293930C00098291C
:10028E0000302F06031D4D2900302E060319282994
:10029E0000302F06031D552901302E0603192C2977
:1002AE0000302F06031D5D2902302E0603192F295B
:1002BE0000302F06031D652903302E06031932293F
:1002CE0000302F06031D6D2904302E060319352923
:1002DE0000302F06031D752905302E060319382907
:1002EE0000302F06031D7D2906302E0603193B29EB
:1002FE0000302F06031D852907302E0603193E29CF
:10030E0000302F06031D8D2908302E0603194129B2
:10031E0000302F06031D952909302E060319442996
:04032E00C001080002
:100332008312B301B4012E08B5002F08B600803035
:100342002F06C00080304002031DA92900302E0272
:100352000318B7290130B3000030B4002E08003C66
:10036200B5002F08031C013EB601B6023508B700DE
:100372003608B8003008B9004F220630B10000300C
:10038200B2003208003C031DC8293108003C0318A2
:10039200E32931083007C20001303102C0000030C9
:1003A200031C013E3202C1004008300784000008ED
:1003B200C00042088400400880000130B102031CE2
:1003C200B203C2293008840020308000330834048C
:1003D2000319012AB101B201310830078400000873
:1003E200203A031DF829B10A0319B20AED29013096
:1003F200B102031CB2033108300784002D308000A3
:020402000800F0
:1004040083168612061206108610061186118312B0
:10041400861206128611061186100610952395235E
:100424009523861406148616C023861295238616F1
:10043400C023861295238616C023861295230610A0
:100444008616C023861295238616C023861286102C
:1004540086158616C02386129523861106148616E1
:10046400C023861206108616C0238612952386168C
:10047400C023861206148616C023861295230610FE
:100484008616C0238612861506158614061486164B
:0A049400C023861295231F140800F0
:10049E008312BA0105303A0203185C2A3A0839076A
:1004AE00840020308000BA0A512A3A0839078400A5
:1004BE008001BA033A083907BB000A30C400C501EF
:1004CE003708C0003808C10067234808C000490833
:1004DE00C1003030C0073B088400400880000A305D
:1004EE00C400C5013708C0003808C10067234008A2
:1004FE00B7004108B80000304106031D882A0030BD
:0E050E004006031D8B2A8D2ABA03612A0800BD
:10051C008312BC1B932A8611942A86153C1B982A9D
:10052C000611992A0615BC1A9D2A86109E2A861435
:10053C003C1AA22A0610A32A06141F18A72A06166C
:10054C00A82A06128616C0238612BC19AF2A861159
:10055C00B02A86153C19B42A0611B52A0615BC1802
:10056C00B92A8610BA2A86143C18BE2A0610BF2A4D
:10057C0006141F18C32A0616C42A06128616C02390
:0E058C0086121F1CCB2A9523CC2AB42308000C
:10059A00DE2A80308312AE00EF2AC030AE00EF2A86
:1005AA009430AE00EF2AD430AE00EF2A8030AE008D
:1005BA00EF2A2E08013A0319CE2A2E08023A031905
:1005CA00D22A2E08033A0319D52A2E08043A031907
:1005DA00D82ADB2A2F03C0002E08C0074008AE0025
:1005EA004008BC008E221F10B10131083007840078
:1005FA0000080319082B3108300784000008B700E7
:0A060A00AD23B10AFA2A1F140800FC
:100614001B2B80308312AE002C2BC030AE002C2B51
:100624009430AE002C2BD430AE002C2B8030AE0096
:100634002C2B2E08013A03190B2B2E08023A03190E
:100644000F2B2E08033A0319122B2E08043A031910
:10065400152B182B2F03C0002E08C0074008AE002E
:100664001F144008BC008E221F103008BC008E22CC
:040674001F14080047
:1006780083120313CB01CA01C9018030C800C10C21
:10068800C00C031C502B4408C90745080318450F24
:10069800CA070318CB0A0310C01F582B4408CA07FF
:1006A80045080318450FCB07CB0CCA0CC90CC80C5E
:1006B800031C432B4B08C3004A08C2004908C10069
:0606C8004808C000080014
:1006CE0083120313C801C9011030CC00410DC80DAF
:1006DE00C90D4408C8024508031C450FC90203187A
:1006EE007F2B4408C80745080318450FC907031098
:0A06FE00C00DC10DCC0B6D2B0800E0
:100708008312AF012F082E07840000080319942BC9
:100718002F082E0784000008B700AD23AF0A862BE8
:020728000800C7
:10072A000F308312CC004730CD00CD0B9A2BCC0B67
:08073A009A2B000000000800EA
:10074200BA238A110A128000840AA70A0319A80A86
:08075200C003031DA12B0800E8
:0E075A0083121F103708BC008E221F140800E7
:0C07680021308312CD00CD0BB72B080010
:0C077400831228088A0027088200080071
:060780000000000008006B
:02400E00FA3F77
:00000001FF
