:02000000B8281E
:0C00060083121F088A001E0882000800F8
:1000120003208A110A128000840A9E0A03199F0A89
:08002200C003031D09280800BA
:10002A00831285140530900000309100803011064B
:10003A00C00080304002031D242800301002031C37
:10004A00B7281008C0001108C100C00DC10D40102A
:10005A004008123E8400000886008230CC00DD3061
:10006A00CD00CD0B3628CC0B36280000000000301E
:10007A001106031D422800301006031DB228851000
:10008A00051501308C0000308D0080300D06C0004F
:10009A0080304002031D532800300C02031CB22892
:1000AA000C08C0000D08C100C00DC10D4010400869
:1000BA00123E8400000886008230CC00DD30CD007C
:1000CA00CD0B6528CC0B65280000000000300D061A
:1000DA00031D712800300C06031DAD280511851576
:1000EA0005308E0000308F0080300F06C00080304F
:1000FA004002031D822800300E02031CAD280E08A0
:10010A00C0000F08C100C00DC10D40104008123ECA
:10011A008400000886008230CC00DD30CD00CD0B93
:10012A009428CC0B94280000000000300F06031D11
:10013A00A02800300E06031DA82885118514063054
:10014A0090000030910001308E02031C8F03792841
:10015A0001308C02031C8D034A2801309002031CD3
:06016A0091031B280800B0
:1001700083128C018D018E018F01900191013F301E
:10018000920093010630940095015B309600970130
:100190004F309800990166309A009B016D309C00A9
:1001A0009D0183168501803086008312861FE42816
:1001B0001A30CC00F830CD00CD0BDC28CC0BDC287D
:0C01C0000000861BE4281520D528E52847
:02400E00FA3F77
:00000001FF
