:020000001528C1
:0C00060083121B088A001A088200080000
:1000120003208A110A128000840A9A0A03199B0A91
:08002200C003031D09280800BA
:10002A003F3083128C008D0106308E008F015B30C9
:10003A00900091014F30920093016630940095012F
:10004A006D3096009701980105309900803083162B
:10005A00860018081902031C4B288312861F4A2897
:10006A001A30CC00F830CD00CD0B3928CC0B39280A
:10007A000000861B4A281808C000C00D401040081E
:10008A000C3E840000088600980A6A288312861F9C
:10009A006A281A30CC00F830CD00CD0B5228CC0B90
:1000AA0052280000861B6A281908C000C00D40109B
:1000BA0040080C3E84000008860099031908003A9B
:0E00CA00031D6A289801053099002E286B2826
:02400E00FA3F77
:00000001FF
