:02000000D02905
:06000600000000000800EC
:0C000C0021308312CD00CD0B0928080024
:100018000F308312CC004730CD00CD0B1128CC0B0C
:0800280011280000000008008F
:1000300083120313C801C9011030CC00410DC80D53
:10004000C90D4408C8024508031C450FC90203181E
:1000500030284408C80745080318450FC90703108E
:0A006000C00DC10DCC0B1E280800D6
:10006A008312AF1B3A2886113B2886152F1B3F287F
:10007A00061140280615AF1A44288610452886140A
:10008A002F1A492806104A2806141D184E28061643
:10009A004F280612861603208612AF195628861193
:1000AA00572886152F195B2806115C280615AF18E4
:1000BA0060288610612886142F186528061066287D
:1000CA0006141D186A2806166B28061286160320BF
:0E00DA0086121D1C72280C20732806200800B8
:0C00E800831220088A001F088200080014
:1000F4008312AD0105302D02031887282D082C0723
:10010400840020308000AD0A7C282D082C07840050
:100114008001AD032D082C07AE000A30C400C501D0
:100124002A08C0002B08C10018204808C00049084C
:10013400C1003030C0072E088400400880000A3017
:10014400C400C5012A08C0002B08C10018204008BB
:10015400AA004108AB0000304106031DB32800305B
:0E0164004006031DB628B828AD038C280800FD
:0E01720083121D102A08AF0035201D1408004E
:10018000D12880308312A100E228C030A100E228EB
:100190009430A100E228D430A100E2288030A100F0
:1001A000E2282108013A0319C1282108023A03195B
:1001B000C5282108033A0319C8282108043A03195D
:1001C000CB28CE282203C0002108C0074008A10088
:1001D0004008AF0035201D10A40124082307840027
:1001E00000080319FB282408230784000008AA003C
:0A01F000B920A40AED281D14080030
:1001FA008312A201220821078400000803190D298D
:10020A002208210784000008AA00B920A20AFF28B0
:02021A000800DA
:10021C008312A601A7012108A8002208A90080309A
:10022C002206C00080304002031D1E29003021022E
:10023C0003182C290130A6000030A7002108003C2F
:10024C00A8002208031C013EA901A9022808AA0043
:10025C002908AB002308AC007A200630A40000303B
:10026C00A5002508003C031D3D292408003C03186B
:10027C00582924082307C20001302402C000003092
:10028C00031C013E2502C10040082307840000081E
:10029C00C00042088400400880000130A402031C06
:1002AC00A503372923088400203080002608270462
:1002BC0003197629A401A50124082307840000084A
:1002CC00203A031D6D29A40A0319A50A62290130DD
:1002DC00A402031CA5032408230784002D308000EE
:0202EC00080008
:1002EE0083168612061206108610061186118312C8
:1002FE008612061286110611861006100C200C208E
:10030E000C20861406148616032086120C208616E0
:10031E00032086120C208616032086120C2006104F
:10032E008616032086120C2086160320861286104F
:10033E0086158616032086120C2086110614861644
:10034E000320861206108616032086120C208616AF
:10035E000320861206148616032086120C20061021
:10036E008616032086128615061586140614861622
:0A037E00032086120C201D14080055
:1003880074208A110A128000840A9F0A0319A00A9D
:08039800C003031DC429080085
:1003A000433083128C004F308D0055308E004E301C
:1003B0008F005430900045309100523092003A3016
:1003C000930020309400950177210130AF00352053
:1003D0000C30AF0035200C30A100FD209E011E081E
:1003E000323C031C0B2A1E08A100A2011630A300F8
:1003F0000E210130A1000930A2001630A300C02058
:100400001A30CC00F830CD00CD0B042ACC0B042AD6
:0A04100000009E0AEF29EE290C2AD5
:02400E00FA3F77
:00000001FF
